:020000040800F2
:1000000000500020BD210008DD200008DF2000088E
:10001000E1200008E3200008E520000800000000BF
:10002000000000000000000000000000E7200008C1
:10003000E920000800000000EB200008ED20000887
:1000400005220008052200080522000805220008F4
:1000500005220008052200080522000805220008E4
:100060000522000805220008F920000805220008E2
:1000700005220008052200080522000805220008C4
:1000800005220008052200080522000805220008B4
:1000900005220008052200080522000805220008A4
:1000A0000522000805220008052200080522000894
:1000B0002921000845210008052200080522000822
:1000C0000522000805220008052200086121000819
:1000D0000522000805220008052200080522000864
:1000E0000522000805220008052200080000000083
:1000F0000000000000000000000000000000000000
:0C01000000000000000000005FF808F1A3
:10010C0010B5054C237833B9044B13B10448AFF345
:10011C0000800123237010BD70000020000000003F
:10012C00942A000808B5034B1BB103490348AFF3ED
:10013C00008008BD0000000074000020942A000814
:10014C0010B504460E4B18784FF47A73B3FBF0F3EA
:10015C000C4A1068B0FBF3F000F0A0F868B90F2C53
:10016C0001D901200AE0002221464FF0FF3000F0B7
:10017C0055F8034B5C60002000E0012010BD00BF6F
:10018C00000000200800002008B5074A136843F05F
:10019C0010031360032000F02FF80020FFF7D0FFAE
:1001AC0001F096FE002008BD00200240034A1168B1
:1001BC00034B1B780B441360704700BFA00000205A
:1001CC0000000020014B1868704700BFA000002001
:1001DC0038B50446FFF7F6FF0546B4F1FF3F02D0F1
:1001EC00044B1B781C44FFF7EDFF401BA042FAD3D5
:1001FC0038BD00BF00000020074AD36823F4E06339
:10020C001B041B0C000200F4E060184340F0BF60BC
:10021C0040F40030D060704700ED00E030B4174B74
:10022C00DB68C3F30223C3F10704042C28BF0424A6
:10023C001D1D062D18D9033B4FF0FF3505FA04F4AC
:10024C0021EA0401994005FA03F322EA0303194356
:10025C0000280BDB0901C9B200F1604000F56140D8
:10026C0080F8001330BC70470023E5E700F00F0066
:10027C000901C9B2024B1954F4E700BF00ED00E0CC
:10028C0014ED00E000F01F02400901239340024AE4
:10029C0042F82030704700BF00E100E00138B0F1B7
:1002AC00807F0AD2064B5860064AF02182F8231050
:1002BC000020986007221A6070470120704700BF29
:1002CC0010E000E000ED00E0042805D0054A1368BA
:1002DC0023F0040313607047024A136843F00403CD
:1002EC001360704710E000E0704708B5FFF7FCFFA3
:1002FC0008BD000008B590F82130022B03D0042370
:10030C008363012008BD0268136823F00E03136099
:10031C000268136823F0010313600368194A9342BF
:10032C0014D0143293421FD0143293421ED0143284
:10033C0093421ED0143293421ED01432934202D0F8
:10034C004FF0807203E04FF4801200E001220E4B5C
:10035C005A60012380F82130002380F82030436B51
:10036C006BB198470020CDE71022F0E74FF4807274
:10037C00EDE74FF48052EAE74FF48032E7E70020D4
:10038C00C0E700BF0800024000000240F0B482B099
:10039C0000263546A1E0002C59D0012C00D1CE68A6
:1003AC00FF2B68D88446FF2B68D8AC00DCF8002003
:1003BC000F27A74022EA070206FA04F42243CCF8DE
:1003CC0000204A6812F0805F00F086805E4A9469D3
:1003DC0044F001049461926902F001020192019AC5
:1003EC00AC08A71C594A52F8272005F00307BF0098
:1003FC004FF00F0C0CFA07FC22EA0C0C544A9042FA
:10040C0042D002F5806290427FD002F58062904229
:10041C007DD002F58062904234D0042235E04D4FFD
:10042C00BC4214D00BD94C4FBC4210D007F58037CE
:10043C00BC420CD0A7F58017BC42B1D107E0A7F5A0
:10044C008017BC4203D007F58037BC42A8D18C681A
:10045C007CB1012C08D042610826A1E7CE68083691
:10046C009EE7CE680C369BE70261082698E70026CB
:10047C0096E7042694E700F1040C94E7A5F1080430
:10048C00A40093E7032200E00022BA4042EA0C02E7
:10049C0002342E4F47F824204A6812F4803F38D09B
:1004AC002E4C22681A4322604A6812F4003F36D060
:1004BC002A4C62681A4362604A6812F4801F34D076
:1004CC00264CA2681A43A2604A6812F4001F32D06C
:1004DC00224CE2681343E36001350F2D31D8012221
:1004EC00AA400B6813409A42F6D14C68122CB8D033
:1004FC0095D8022CB2D07FF64EAF032CB7D0112C6E
:10050C007FF44EAFCE6804364AE70122BDE70222E3
:10051C00BBE7124C226822EA03022260C4E70F4CAC
:10052C00626822EA03026260C6E70C4CA26822EA07
:10053C000302A260C8E7094CE26822EA0303E36005
:10054C00CAE702B0F0BC7047001002400000014046
:10055C00000801400000211000003110000401408F
:10056C008368194201D1002070470120704712B9ED
:10057C0009040161704701617047C3685940C1604B
:10058C007047704708B5054B5B69034200D108BD45
:10059C00024B5861FFF7F5FFF9E700BF000401407B
:1005AC0003685A6912F4806F0DD06FF480625A613F
:1005BC000423036400230363202280F83D2080F889
:1005CC003C300120704700207047F8B506460C46B9
:1005DC0017461D461EE02DB1FFF7F4FD069BC01A11
:1005EC00A84217D900233363202286F83D2086F8D1
:1005FC003E3086F83C3003201AE033685B6924EA0D
:10060C0003039BB2B3FA83F35B099F420FD1B5F19D
:10061C00FF3FE0D1C4F30743012BEED033689B6955
:10062C0024EA03039BB2B3FA83F35B09EDE70020E2
:10063C00F8BDF8B504460D4616461F4632E01A685A
:10064C0042F400721A6023686FF480625A610423CA
:10065C00236400232363202284F83D2084F83C305B
:10066C0001202DE026B1FFF7ADFDC01BB04219D91A
:10067C0000232363202284F83D2084F83C3003209F
:10068C001EE023685B6925EA03039BB2003318BFA5
:10069C000123A3B123685A6912F4806FCFD1B6F14C
:1006AC00FF3FDFD1C5F30743012BEAD023689B69D9
:1006BC0025EA03039BB2003318BF0123E9E70020AE
:1006CC00F8BD0000F0B583B004460D4616461F4633
:1006DC00C36A042B0DD0012B0BD013F5803F08D02F
:1006EC00036B122B0AD10268136843F480731360F6
:1006FC0004E02268136843F4807313600097334658
:10070C0000224FF001112046FFF75FFF58BB236911
:10071C00B3F5804F10D1236805F0FE051D613B46F3
:10072C00324615492046FFF784FF0346E0B1236C9F
:10073C00042B1ED1012317E0EB11226803F00603F2
:10074C0043F0F00313613B4632460C492046FFF759
:10075C0070FF20B1236C042B09D1012304E0236822
:10076C00EDB21D61DBE70323184603B0F0BD032394
:10077C00FAE70323F8E700BF0200010008000100BC
:10078C0070B504460D46164623685B6913F0800F5E
:10079C0019D12046FFF704FFB8B9B5F1FF3FF3D0EC
:1007AC0025B1FFF70FFD801BA842EDD9236C43F058
:1007BC002003236400232363202284F83D2084F843
:1007CC003C30032000E0002070BD0120FCE770B538
:1007DC0004460D46164623685B6913F0040F19D1C5
:1007EC002046FFF7DDFEB8B9B5F1FF3FF3D025B1D8
:1007FC00FFF7E8FC801BA842EDD9236C43F02003E3
:10080C00236400232363202284F83D2084F83C30A9
:10081C00032000E0002070BD0120FCE7002800F060
:10082C00A28038B5044690F83D30002B4FD02423DD
:10083C0084F83D302268136823F00103136000F044
:10084C0061FC62684A4B9A4246D84A4B98428CBF2C
:10085C0000230123002B40F08880474BA3FB00238F
:10086C009B0C226853606168414A91423AD801332B
:10087C002268136261683E4B99423DD8431E490081
:10088C00B3FBF1F30133C3F30B03042B38BF042385
:10089C002268D361E369216A22680B4313602369E0
:1008AC00E16822680B4393606369A16922680B437A
:1008BC00D3602268136843F00103136000202064A6
:1008CC00202384F83D30206384F83E0038BD80F846
:1008DC003C3001F04DFBAAE7284B98428CBF00231B
:1008EC000123B7E74FF4967202FB03F3244AA2FBF1
:1008FC0003239B090133BBE7A368BBB9421E01EB81
:10090C004105B2FBF5F20132C2F30B02B2FA82F2EC
:10091C00520932BBC3B9013801EB4103B0FBF3F30D
:10092C000133C3F30B0343F40043B1E7421E01EB65
:10093C00810505EB8505B2FBF5F20132C2F30B0222
:10094C00B2FA82F25209E4E7013801EB810303EBBE
:10095C008303B0FBF3F30133C3F30B0343F44043C2
:10096C0096E7012394E7012070470120AEE700BF12
:10097C00A08601007F841E0083DE1B43FF083D0020
:10098C00D34D62102DE9F04184B004460E469046DA
:10099C001F46FFF717FC94F83D30DBB2202B04D038
:1009AC000226304604B0BDE8F081054600901923BC
:1009BC00012254492046FFF708FE002840F0998098
:1009CC0094F83C30012B00F09680012384F83C30E5
:1009DC0023681A6812F0010F03D11A6842F0010261
:1009EC001A602268136823F400631360212384F8CF
:1009FC003D30102384F83E3000232364C4F8248057
:100A0C006785A3F58033E362638D23852B460A9AB1
:100A1C0031462046FFF756FE064660B1236C042B88
:100A2C0004D1002384F83C300126BAE7002384F873
:100A3C003C300326B5E70023039323685A690392DD
:100A4C009B690393039B10E0236C042B55D1226804
:100A5C00136843F4007313600126A2E72A460A992F
:100A6C002046FFF7B4FE00282BD1238D002B32D06B
:100A7C002A460A992046FFF783FE0028E4D1636AD0
:100A8C005A1C626222681B781361638D013B9BB216
:100A9C006385238D013B9BB223852268516911F03C
:100AAC00040FDBD0002BD9D0636A591C61621B7810
:100ABC001361638D013B9BB26385238D013B2385C1
:100ACC00CCE7236C042B1AD12268136843F400730F
:100ADC001360012665E72268136843F40073136002
:100AEC00202384F83D30002384F83E3084F83C30D9
:100AFC0057E7022655E7022653E7032651E703265C
:100B0C004FE700BF0200100082B0084B1B68084A78
:100B1C00A2FB03235B0A00FB03F0019000BF019BC7
:100B2C005A1E0192002BF9D102B070470800002028
:100B3C00D34D621070B582B00446036813F0010FF8
:100B4C002CD0AB4B5B6803F00C03042B1DD0A84BD3
:100B5C005B6803F00C03082B12D06368B3F5803F7D
:100B6C0041D0002B55D103F1804303F504331A68AF
:100B7C0022F480321A601A6822F480221A6037E05C
:100B8C009B4B5B6813F4803FE7D0994B1B6813F4C5
:100B9C00003F03D06368002B00F0AE81236813F094
:100BAC00020F76D0924B5B6813F00C0F5FD0904B1A
:100BBC005B6803F00C03082B54D02369002B00F066
:100BCC008A808C4B01221A60FFF7FCFA0546884B91
:100BDC001B6813F0020F75D1FFF7F4FA401B0228C3
:100BEC00F5D903208BE1824A136843F480331360F8
:100BFC00636843B3FFF7E6FA05467D4B1B6813F4B5
:100C0C00003FCBD1FFF7DEFA401B6428F5D9032057
:100C1C0075E1B3F5A02F09D0754B1A6822F4803218
:100C2C001A601A6822F480221A60E1E703F180430B
:100C3C00A3F53C331A6842F480221A601A6842F415
:100C4C0080321A60D4E7FFF7BDFA0546684B1B6883
:100C5C0013F4003FA2D0FFF7B5FA401B6428F5D976
:100C6C0003204CE1624B5B6813F4803FA5D1604BD1
:100C7C001B6813F0020F04D02369012B01D0012053
:100C8C003DE15B4A136823F0F803616943EAC10351
:100C9C001360236813F0080F32D0A369002B5BD0CC
:100CAC00554B01221A60FFF78DFA0546504B5B6AD3
:100CBC0013F0020F21D1FFF785FA401B0228F5D95A
:100CCC0003201CE14A4A136823F0F803616943EAE4
:100CDC00C1031360DDE7474B00221A60FFF772FA7D
:100CEC000546434B1B6813F0020FD2D0FFF76AFA8C
:100CFC00401B0228F5D9032001E10120FFF704FF76
:100D0C00236813F0040F00F09780394BDB6913F064
:100D1C00805F33D1364BDA6942F08052DA61DB699D
:100D2C0003F080530193019B0125344B1B6813F492
:100D3C00807F25D0E368012B36D0002B4CD103F1FA
:100D4C00804303F504331A6A22F001021A621A6A0C
:100D5C0022F004021A622CE0274B00221A60FFF7E3
:100D6C0031FA0546224B5B6A13F0020FC8D0FFF72D
:100D7C0029FA401B0228F5D90320C0E00025D4E74E
:100D8C001E4A136843F480731360FFF71BFA064680
:100D9C001A4B1B6813F4807FCCD1FFF713FA801B1E
:100DAC006428F5D90320AAE0114A136A43F0010321
:100DBC001362E36873B3FFF705FA06460C4B1B6A24
:100DCC0013F0020F37D1FFF7FDF9801B41F2883386
:100DDC009842F3D9032092E0052B11D0044B1A6AE8
:100DEC0022F001021A621A6A22F004021A62E0E787
:100DFC000010024000004242800442420070004059
:100E0C00414B1A6A42F004021A621A6A42F0010259
:100E1C001A62CEE7FFF7D6F906463B4B1B6A13F076
:100E2C00020F08D0FFF7CEF9801B41F288339842AD
:100E3C00F3D9032063E0E5B9E369002B5ED0324AB5
:100E4C00526802F00C02082A5BD0022B17D02F4BF1
:100E5C0000221A60FFF7B6F904462B4B1B6813F0FF
:100E6C00007F47D0FFF7AEF9001B0228F5D903200D
:100E7C0045E0254AD36923F08053D361DCE7234B4B
:100E8C0000221A60FFF79EF905461F4B1B6813F0F2
:100E9C00007F06D0FFF796F9401B0228F5D90320F6
:100EAC002DE0236AB3F5803F1AD017494B6823F421
:100EBC007413226A606A024313434B60134B012282
:100ECC001A60FFF77FF904460F4B1B6813F0007F85
:100EDC000ED1FFF777F9001B0228F5D903200EE09D
:100EEC00094A536823F40033A1680B435360DCE7D1
:100EFC00002004E0002002E0012000E0002002B00D
:100F0C0070BD0120FBE700BF0010024060004242B0
:100F1C0010B487B0164C94E80F000DF1180C0CE9C6
:100F2C000F00238AADF80430124B5B6803F00C02FF
:100F3C00082A1AD1C3F38342624412F8102C13F41A
:100F4C00803F05D10C4800FB02F007B010BC704785
:100F5C00084B5B68C3F34043634413F8143C0748E5
:100F6C0000FB02F0B0FBF3F0EFE70448EDE700BF45
:100F7C00AC2A00080010024000093D0000127A0063
:100F8C00594B1B6803F007038B420CD2564A13686B
:100F9C0023F007030B431360136803F007038B4222
:100FAC0001D00120704770B5036813F0020F06D012
:100FBC004E4A536823F0F0038468234353600C4675
:100FCC000546036813F0010F52D04368012B23D060
:100FDC00022B28D0454A126812F0020F00F08280D2
:100FEC0042494A6822F0030213434B60FFF7EAF8C8
:100FFC0006466B68012B1DD0022B2AD03B4B5B683D
:10100C0013F00C0F34D0FFF7DDF8801B41F288335E
:10101C009842F3D9032064E0344A126812F4003F7A
:10102C00DED101205DE0314A126812F0007FD7D189
:10103C00012056E02D4B5B6803F00C03042B17D0FA
:10104C00FFF7C0F8801B41F288339842F2D9032095
:10105C0047E0264B5B6803F00C03082B08D0FFF726
:10106C00B1F8801B41F288339842F2D9032038E062
:10107C001D4B1B6803F00703A3420CD91A4A1368D3
:10108C0023F0070323431360136803F00703A34201
:10109C0001D0012025E02B6813F0040F06D0134A71
:1010AC00536823F4E063E9680B4353602B6813F037
:1010BC00080F07D00D4A536823F46053296943EA9B
:1010CC00C1035360FFF724FF084B5B68C3F30313A2
:1010DC00074AD35CD840074B18600020FFF730F864
:1010EC00002070BD0120FCE70020024000100240EF
:1010FC00D02A000808000020014B1868704700BF78
:10110C000800002008B5FFF7F7FF044B5B68C3F33A
:10111C000223034AD35CD84008BD00BF0010024034
:10112C00E02A0008F8B505460F4616461C463BE07B
:10113C002CB1FFF747F8069BC01AA04234D32A689B
:10114C00536823F0E00353606B68B3F5827F0BD0D8
:10115C00AB6AB3F5005F14D0012385F8513000233E
:10116C0085F85030032027E0AB68B3F5004F02D070
:10117C00B3F5806FECD12A68136823F04003136039
:10118C00E6E72A68136823F400531B041B0C136056
:10119C002A68136843F400531360DDE70123B3425C
:1011AC0009D0B4F1FF3FC3D12B689B6837EA030326
:1011BC00F4D00023F3E70020F8BD10B582B004464C
:1011CC0000920B4600228021FFF7ACFF034610B9BA
:1011DC00184602B010BD636D43F020036365032312
:1011EC00F6E70000034690F8500001284BD0012090
:1011FC0083F8500000293DD0002A3DD093F85100CF
:10120C00C0B2012801D0022037E0032083F851003E
:10121C000020586519639A86DA8698639887D88770
:10122C001864DA68BAB1194A5A649A68B2F5004F70
:10123C0014D09A68C2B919684A6842F080024A60B0
:10124C001A68116811F0400F1BD1116841F0400170
:10125C001160002011E00E4A5A64E6E719680A682A
:10126C0042F480420A60E4E719684A6842F0A0023E
:10127C004A60E5E7012000E00120002283F85020BD
:10128C0070470020F9E70220704700BF591300088F
:10129C00351300087047000010B582B00446204B8F
:1012AC001B68204AA2FB03235B0A642202FB03F3A4
:1012BC000193FEF787FF0246019B591E01912BB14A
:1012CC0023689B6813F0020FF6D003E0636D43F0C4
:1012DC002003636521684B6823F0A0034B606421F5
:1012EC002046FFF76AFF18B1636D43F02003636576
:1012FC00A36833B900932368DA6800929B68009363
:10130C00009B012384F85130636D23B9204600F013
:10131C00F3FB02B010BD2046FFF7BCFFF9E700BF9E
:10132C0008000020F119760508B5036B5A1C0263FE
:10133C0002681B781373C38E013B9BB2C386C38EAA
:10134C009BB203B108BDFFF7A7FFFBE708B5026B23
:10135C0003681288DA60036B02330363C38E013BAC
:10136C009BB2C386C38E9BB203B108BDFFF794FF3B
:10137C00FBE7000010B584B004460268506893681F
:10138C0003F0410101290AD013F0020F0ED010F026
:10139C00800F0BD0636C2046984704B010BD10F042
:1013AC00400FF1D0236C20469847F6E713F0600FFE
:1013BC00F3D010F0200FF0D013F0400F0FD094F8B2
:1013CC005110C9B203293DD0616D41F00401616532
:1013DC0000210191D168019191680191019913F05B
:1013EC00200F0CD0636D43F001036365002303935E
:1013FC0093680393136823F040031360039B636D9E
:10140C00002BCAD02268536823F0E00353600123F9
:10141C0084F8513010F0030F1CD02268536823F06D
:10142C0003035360E36C23B10C4A5A63E06CFEF780
:10143C0061FFA36C002BB0D0084A5A63A06CFEF776
:10144C0059FFAAE700230293D3680293936802938F
:10145C00029BA2E72046FFF71DFF9EE76D140008D4
:10146C0008B5406A0023C387C386FFF713FF08BD86
:10147C0000283CD010B504460023836290F851300C
:10148C00002B31D0022384F851302268136823F0EA
:10149C00400313606368A2681343E2681343226934
:1014AC00134362691343A26902F400721343E269A5
:1014BC001343226A1343A16A22680B431360638BA4
:1014CC0003F00403616A22680B4353602368E26AE9
:1014DC001A612268D36923F40063D361002060652C
:1014EC00012384F8513010BD00F066FDCAE70120DD
:1014FC0070477047704770477047704710B5044687
:10150C0003681A6912F0020F11D0DA6812F0020F98
:10151C000DD06FF002021A610123037703689B69F7
:10152C0013F0030F70D0FFF7E6FF00232377236837
:10153C001A6912F0040F12D0DA6812F0040F0ED0F0
:10154C006FF004021A610223237723689B6913F45A
:10155C00407F5FD02046FFF7CEFF00232377236820
:10156C001A6912F0080F12D0DA6812F0080F0ED0B8
:10157C006FF008021A61042323772368DB6913F0E8
:10158C00030F4ED02046FFF7B6FF002323772368C6
:10159C001A6912F0100F12D0DA6812F0100F0ED078
:1015AC006FF010021A61082323772368DB6913F4A8
:1015BC00407F3DD02046FFF79EFF00232377236812
:1015CC001A6912F0010F03D0DA6812F0010F36D14C
:1015DC0023681A6912F0800F03D0DA6812F0800FBA
:1015EC0034D123681A6912F0400F03D0DA6812F074
:1015FC00400F32D123681A6912F0200F03D0DA6839
:10160C0012F0200F30D110BDFFF774FF2046FFF70A
:10161C0073FF8AE72046FFF76DFF2046FFF76CFF4C
:10162C009BE72046FFF766FF2046FFF765FFACE718
:10163C002046FFF75FFF2046FFF75EFFBDE76FF028
:10164C0001021A612046FFF754FFC1E76FF08002D8
:10165C001A61204600F004F9C3E76FF040021A61EA
:10166C002046FFF74AFFC5E76FF020021A612046BB
:10167C0000F0F5F8C7E7000003681B4A90420AD057
:10168C00B0F1804F07D0A2F59432904203D002F50E
:10169C008062904203D123F070034A681343124ACC
:1016AC0090420AD0B0F1804F07D0A2F5943290420C
:1016BC0003D002F58062904203D123F44073CA68D0
:1016CC00134323F080034A69134303608B68C3629E
:1016DC000B688362044B984202D00123436170472C
:1016EC000B690363F9E700BF002C0140002847D0C9
:1016FC00F8B505460C4690F83D30002B3BD0022344
:10170C0085F83D30294651F8042B936823F00703E4
:10171C0093602868FFF7B0FF29688A688E690F6AA2
:10172C002068104326F4407626F00306A268A369CD
:10173C0042EA0323334323F47C4323F0FC03E6689F
:10174C00E26946EA02261E43226A1303226943EA2F
:10175C000213334327F0AA076268646942EA041251
:10176C003A43886029688B612B681A62012385F8DB
:10177C003D300020F8BD80F83C3000F051FCBEE755
:10178C000120704710B4012303FA01F4036A23EA21
:10179C0004030362036A8A401343036210BC70475C
:1017AC0010B50446B1B1042925D0012200210068EE
:1017BC00FFF7E8FF012204212068FFF7E3FF22680E
:1017CC00D36843F00203D3602268D36843F0040368
:1017DC00D36009E0012200210068FFF7D3FF2268E3
:1017EC00D36843F00203D3602268136843F001030B
:1017FC001360002010BD012204210068FFF7C2FF16
:10180C002268D36843F00403D360EDE790F83C30D2
:10181C00012B22D030B4012280F83C20022380F826
:10182C003D300468636823F0700363600468636888
:10183C000D682B4363600468A36823F08003A360E6
:10184C000468A36849680B43A36080F83D2000231B
:10185C0080F83C30184630BC704702207047704707
:10186C00704784B000B585B00DF1180C8CE80F00F2
:10187C009DF870301B01DBB28DF80C308DF80D30FB
:10188C009DF819202AB143F008038DF80C308DF81F
:10189C000D309DF80C3043F004038DF80C309DF89E
:1018AC000D3023F003038DF80D3006A810F8041B3F
:1018BC000A230093022303AAFFF764F805B05DF82E
:1018CC0004EB04B0704784B000B585B00DF1180C72
:1018DC008CE80F009DF870301B01DBB28DF80C30DA
:1018EC008DF80D309DF819202AB143F008038DF8BE
:1018FC000C308DF80D309DF80C3043F005038DF84D
:10190C000C309DF80D3023F003038DF80D3006A834
:10191C0010F8041B0A230093022303AAFFF732F8E2
:10192C0005B05DF804EB04B0704784B030B595B0E9
:10193C0018AC84E80F009DF8B8502B09129348247A
:10194C0022461CA9684600F07DFC18AB0FCBFFF7B4
:10195C00BAFF129522461CA9684600F073FC18AB1E
:10196C000FCBFFF7B0FF15B0BDE8304004B07047A7
:10197C0084B070B594B018AC84E80F009DF8B83002
:10198C002F9C022B1DD0032B1DD0012B1DD000250D
:10199C0045F080052B091293482632461CA968464F
:1019AC0000F050FC18AB0FCBFFF75BFF12953246E3
:1019BC001CA9684600F046FC18AB0FCBFFF751FF93
:1019CC0010E01425E4E75425E2E72825E0E712931C
:1019DC0048221CA9684600F035FC18AB0FCBFFF76A
:1019EC00A4FF01342378002BF1D114B0BDE8704072
:1019FC0004B0704784B010B594B016AC84E80F00F6
:101A0C0000240FE00B4B1B5D129348221AA9684669
:101A1C0000F018FC16AB0FCBFFF723FF0520FEF7E9
:101A2C00D7FB01340C2CEDDD14B0BDE8104004B034
:101A3C00704700BFC02A000870B588B02B4B9A695C
:101A4C0042F010029A619A6902F010020092009A18
:101A5C009A6942F020029A619A6902F0200201927E
:101A6C00019A9A6942F004029A619A6902F004029E
:101A7C000292029A9A6942F008029A619B6903F0F9
:101A8C0008030393039B1A4D00224FF40051284680
:101A9C00FEF76DFD4FF400530493012605960024C8
:101AAC0006940223079304A92846FEF76FFC102323
:101ABC000493104B05930694A5F5006504A92846DC
:101ACC00FEF764FC4FF4407304930594069604A946
:101ADC002846FEF75BFC224621460A20FEF79EFBB9
:101AEC000A20FEF7CFFB08B070BD00BF001002400B
:101AFC00001001400000111008B5042202490348EF
:101B0C00FFF770FB08BD00BF8C0000209001002087
:101B1C00FEE7000008B50B480B4B03600B4B436012
:101B2C0000238360C3604FF4804202614361836190
:101B3C00C3610362FEF772FE00B908BDF0210448D0
:101B4C00FFF7E6FFA400002000540040A08601002F
:101B5C00E82A000800B58DB018484FF080430360A8
:101B6C000023436083604FF6FF72C26003618361A0
:101B7C0003220392049301210591042206920793F8
:101B8C00089309910A920B9303A9FFF7AFFD50B983
:101B9C0000230193029301A90848FFF737FE38B9D7
:101BAC000DB05DF804FB40F225110548FFF7B0FFBE
:101BBC004FF496710248FFF7ABFF00BFE80100201D
:101BCC00E82A000808B50D480D4B0360002343605C
:101BDC008360C360036143614FF400728261C3612F
:101BEC000362436283620A23C362FFF741FC00B9BC
:101BFC0008BD4FF484710348FFF78AFF9001002061
:101C0C0000300140E82A000800B58DB01748184B89
:101C1C0003600023436083604FF6FF72C260036170
:101C2C0083610322039204930121059104220692FD
:101C3C000793089309910A920B9303A9FFF756FD9A
:101C4C0050B900230193029301A90848FFF7DEFD68
:101C5C0038B90DB05DF804FB40F249110548FFF7A7
:101C6C0057FF4FF4A8710348FFF752FF50010020B3
:101C7C0000040040E82A000800B591B00123069347
:101C8C004FF48033079300230D9306A8FEF752FF01
:101C9C00F8B90F23019301230293002103910491BE
:101CAC00059101A8FFF76CF9B8B9FFF725FA0D4BB0
:101CBC00A3FB00308009FEF7F1FA0420FEF704FBC9
:101CCC00002211464FF0FF30FEF7A8FA11B05DF874
:101CDC0004FBC4210448FFF71BFFD2210248FFF785
:101CEC0017FF00BFD34D6210E82A000880B598B0EA
:101CFC00FEF74AFAFFF7C0FFFFF79EFEFFF70AFF59
:101D0C00FFF728FFFFF75EFFFFF77EFF1821624801
:101D1C00FFF746FD18216148FFF742FD0422604998
:101D2C006048FFF75FFA604C4E2323700127677001
:101D3C0054225E49201D00F085FA04F11005482656
:101D4C0032462946684600F07DFA94E80F00FFF70A
:101D5C0051FEDFF87881CDF84C8000231293324687
:101D6C002946684600F06EFA94E80F00FFF700FE73
:101D7C00CDF84C80129732462946684600F062FA3C
:101D8C0094E80F00FFF7F4FD4DE06420FEF720FA15
:101D9C004FF400514648FEF7F0FB414BB3F90430C9
:101DAC00002B5ADB434981FB0321DA17C2EB61128A
:101DBC00642101FB12331BB212B23F4914A800F08C
:101DCC004DFA394C14AB139300231293482204F1AF
:101DDC001001684600F036FA94E80F00FFF7C8FDD2
:101DEC002F4BB3F90630002B46DB324981FB032124
:101DFC00DA17C2EB6112642101FB12331BB212B26F
:101E0C002E4914A800F02AFA274C14AB1393012383
:101E1C001293482204F11001684600F013FA94E87A
:101E2C000F00FFF7A5FD4FF480712548FEF798FBD6
:101E3C0028B9194B1A6800235362194A93804FF43E
:101E4C0000711F48FEF78CFB00289ED1134B1A68BB
:101E5C0000235362124AD38097E75B42154981FBFA
:101E6C000321DA17C2EB6112642101FB123315490D
:101E7C0014A800F0F3F9A4E75B420E4981FB03219F
:101E8C00DA17C2EB6112642101FB12330E4914A85C
:101E9C0000F0E4F9B8E700BFE80100205001002091
:101EAC008C00002090010020F8000020A4000020ED
:101EBC00001001401F85EB51242B0008542B000807
:101ECC00000801400C2B00083C2B0008F82A0008E5
:101EDC0000B583B0244B9A6942F001029A619A6969
:101EEC0002F001020092009ADA6942F08052DA6143
:101EFC00DB6903F080530193019B0320FEF77CF90F
:101F0C00002211466FF00B00FEF788F900221146F3
:101F1C006FF00A00FEF782F9002211466FF00900FB
:101F2C00FEF77CF9002211466FF00400FEF776F9FB
:101F3C00002211466FF00300FEF770F900221146E3
:101F4C006FF00100FEF76AF9002211464FF0FF30E6
:101F5C00FEF764F9054A536823F0E06343F000731D
:101F6C00536003B05DF804FB001002400000014018
:101F7C0002680E4B9A4200D0704700B587B0C02360
:101F8C000293122303930323059302A90848FEF737
:101F9C00FDF9084BDA6942F40012DA61DB6903F4EB
:101FAC0000130193019B07B05DF804FB0054004043
:101FBC00000C0140001002400268174B9A4200D0FE
:101FCC00704730B587B003F560439A6942F480528C
:101FDC009A619B6903F480530193019B2023029324
:101FEC000024039404940D4D02A92846FEF7CEF963
:101FFC0040230293022303930323059302A928464B
:10200C00FEF7C4F9224621462320FEF707F92320C8
:10201C00FEF738F907B030BD003001400008014030
:10202C0010B586B00368B3F1804F04D0234A9342B5
:10203C001ED006B010BD03F50433DA6942F001027C
:10204C00DA61DB6903F001030093009B0323029325
:10205C0000240394049402A91948FEF797F9224628
:10206C0021461C20FEF7DAF81C20FEF70BF9E0E7FE
:10207C00144BDA6942F00202DA61DB6903F0020305
:10208C000193019B3023029300240394049402A92E
:10209C000D48FEF77BF90D4A536823F4406343F077
:1020AC00E06343F400635360224621461D20FEF793
:1020BC00B5F81D20FEF7E6F8BBE700BF00040040B2
:1020CC000008014000100240000C014000000140DB
:1020DC007047FEE7FEE7FEE7FEE770477047704784
:1020EC0008B5FEF763F8FEF700F908BD08B5084B14
:1020FC00B3F90020074B1A7012125A70064AB2F943
:10210C0000209A701212DA701020FEF73BFA08BD0C
:10211C00900000208C0000209200002008B504489C
:10212C0003685A6A034B1A80FFF7E8F908BD00BF31
:10213C00E80100209000002008B5044803685A6AA2
:10214C00034B1A80FFF7DAF908BD00BF50010020DD
:10215C009200002008B50248FFF70CF908BD00BF3B
:10216C00900100200F4B1A6842F001021A60596866
:10217C000D4A0A405A601A6822F0847222F48032A6
:10218C001A601A6822F480221A605A6822F4FE023D
:10219C005A604FF41F029A60044B4FF000629A6031
:1021AC00704700BF001002400000FFF800ED00E097
:1021BC00002103E00B4B5B58435004310A480B4B96
:1021CC0042189A42F6D30A4A02E0002342F8043B32
:1021DC00084B9A42F9D3FFF7C5FF00F00FF8FFF751
:1021EC0085FD7047A82B000800000020700000201F
:1021FC00700000202C020020FEE7000070B50025C6
:10220C000C4E0D4CA41BA410A54209D100F03CFCB3
:10221C0000250A4E0A4CA41BA410A54205D170BD82
:10222C0056F8253098470135EEE756F82530984793
:10223C000135F2E7A02B0008A02B0008A02B00080A
:10224C00A42B000810B5431E0A44914200D110BDC6
:10225C0011F8014B03F8014FF7E700000EB46FF0D3
:10226C00004100B59CB01DAB029006900791049103
:10227C000848094953F8042B0591006802A90193F9
:10228C0000F066F80022029B1A701CB05DF804EB9B
:10229C0003B070470C0000200802FFFF2DE9F04747
:1022AC008E6882469E420C469046994637D88A895B
:1022BC0012F4906F31D00223256809696F1A656991
:1022CC0005EB450595FBF3F509F101033B449D42F4
:1022DC0038BF1D46530530D5294600F02DFB064668
:1022EC0050B90C234FF0FF30CAF80030A38943F0EB
:1022FC004003A381BDE8F0873A462169FFF7A2FFAE
:10230C00A38923F4906343F08003A38126613E44A8
:10231C0026604E466561ED1BA5604E4500D94E46C4
:10232C0032464146206800F0A1FAA36800209B1BAE
:10233C00A36023681E442660DCE72A4600F056FBA7
:10234C0006460028E2D12169504600F0A9FAC8E7F8
:10235C002DE9F04F1D468B899DB01F0680460C461B
:10236C0016460FD50B696BB9402100F0E5FA2060D9
:10237C00206128B90C23C8F800304FF0FF30C8E0BA
:10238C00402363610023099320238DF829303023E7
:10239C004FF0010B8DF82A30039537463D4615F862
:1023AC00013B0BB1252B3ED1B7EB060A0BD05346A4
:1023BC00324621464046FFF771FF013000F0A48001
:1023CC00099B534409933B78002B00F09D8000231C
:1023DC004FF0FF32CDE90523049307938DF853306A
:1023EC001A932F46052217F8011B504800F030FABB
:1023FC00049BD0B9D90644BF20228DF853201A076C
:10240C0044BF2B228DF853202A782A2A15D02F4628
:10241C0000200A25079A394611F8013B303B092B5D
:10242C004DD9B8B10FE02F46B8E7404A3D46801A67
:10243C000BFA00F018430490D3E7039A111D1268AD
:10244C000391002A01DB079204E0524243F002039D
:10245C00079204933B782E2B0CD17B782A2B33D10B
:10246C00039B02371A1D1B680392002BB8BF4FF059
:10247C00FF3305932E4D03223978284600F0E8F9F6
:10248C0038B14023401B03FA00F0049B013703438F
:10249C0004933978062227487E1C8DF8281000F00A
:1024AC00D7F9002838D0244B13BB039B073323F0F8
:1024BC00070308330393099B4B4409936DE705FB12
:1024CC00023201200F46A6E700230A2519460137E0
:1024DC000593384610F8012B303A092A03D9002B02
:1024EC00C8D00591C6E705FB012101230746F0E79B
:1024FC0003AB00932246114B04A94046AFF3008076
:10250C00B0F1FF3F8146D6D1A3895B063FF535AFCD
:10251C0009981DB0BDE8F08F03AB00932246074B22
:10252C0004A9404600F082F8EAE700BF6C2B0008D3
:10253C00722B0008762B000800000000A92200086E
:10254C002DE9F04791461F468A680B69064693426F
:10255C00B8BF1346C9F8003091F843200C46DDF89B
:10256C00208012B10133C9F800302368990642BFAC
:10257C00D9F800300233C9F80030256815F006058B
:10258C0007D104F1190AE368D9F800209B1AAB4271
:10259C0029DC94F843302268003318BF01239206DB
:1025AC002ED404F1430239463046C047013021D0C5
:1025BC002368E56803F00603042B18BF0025D9F83F
:1025CC0000204FF0000908BFAD1AA368226908BFAC
:1025DC0025EAE5759342C4BF9B1AED181A344D4594
:1025EC001AD1002008E00123524639463046C04734
:1025FC00013003D14FF0FF30BDE8F0870135C2E761
:10260C003020E11881F843005A1C94F845102244FC
:10261C00023382F84310C4E7012322463946304680
:10262C00C0470130E6D009F10109D8E72DE9F043A4
:10263C0001F1430C0C46097E85B06E2917460646FF
:10264C0098460C9A00F0B38022D8632936D00AD869
:10265C00002900F0B980582900F0838004F142056C
:10266C0084F8421032E0642901D06929F6D120683F
:10267C001368050603F104012AD51B681160002BB1
:10268C0003DA2D225B4284F843206F480A2239E09A
:10269C00732900F09D8008D86F2920D07029DDD1D6
:1026AC00236843F02003236003E0752917D07829B1
:1026BC00D4D17823654884F8453055E0136804F18B
:1026CC004205191D1B68116084F8423001238CE00F
:1026DC001B6810F0400F116018BF1BB2CFE71368D6
:1026EC002568181D1060280601D51B6802E06806D5
:1026FC00FBD51B886F2914BF0A22082252480021DF
:10270C0084F843106568002DA560C0F2958021689F
:10271C0021F004012160002B3DD1002D40F08E8072
:10272C006546082A0BD12368DB0708D52369626844
:10273C009A42DEBF302305F8013C05F1FF35ACEBC6
:10274C0005032361CDF800803B4603AA21463046A1
:10275C00FFF7F6FE01304DD14FF0FF3005B0BDE86C
:10276C00F083394884F84510136821681D1D1B68D7
:10277C0015600A060BD5CA0744BF41F02001216041
:10278C001BB9226822F0200222601022B7E74D0606
:10279C0048BF9BB2EFE76546B3FBF2F102FB113386
:1027AC00C35C05F8013D0B460029F5D1B9E7136868
:1027BC002568181D6169106028061B6801D5196011
:1027CC0002E06A06FBD51980002365462361B9E750
:1027DC001368191D11601D6862680021284600F0FD
:1027EC0037F808B1401B606063682361002384F8EC
:1027FC004330A7E723692A4639463046C0470130A3
:10280C00AAD023689B0713D4E068039B9842B8BFF7
:10281C001846A3E701234A4639463046C0470130E3
:10282C009AD00135E368039A9B1AAB42F2DCEBE7D2
:10283C00002504F11909F5E7002BACD1037804F15C
:10284C00420584F842306CE77D2B00088E2B000883
:10285C0010B5C9B202449042034601D1002303E0F3
:10286C001C7801308C42F6D1184610BD884210B548
:10287C0001EB020307D8421E99420AD011F8014B12
:10288C0002F8014FF8E78342F5D98118D21AD342E6
:10289C0000D110BD13F8014D01F8014DF7E7000010
:1028AC0038B50546002943D051F8043C0C1F002BC9
:1028BC00B8BFE41800F0D0F81E4A1368104633B9BC
:1028CC00636014602846BDE8384000F0C6B8A342E7
:1028DC000BD921686218934201BF1A685B685218C1
:1028EC00226063600460EDE713465A680AB1A242A5
:1028FC00FAD919685818A0420BD12068014458180D
:10290C0082421960DED110685268014419605A6025
:10291C00D8E702D90C232B60D4E7206821188A420F
:10292C0001BF116852680918216062605C60C9E7D8
:10293C0038BD00BF9400002070B5CD1C25F00305F8
:10294C0008350C2D38BF0C25002D064601DBA9429D
:10295C0003D90C233360002070BD00F07DF8214AB0
:10296C001468214691B9204C23681BB9304600F0FD
:10297C0063F820602946304600F05EF8431C24D1F1
:10298C000C233046336000F068F8E4E70B685B1BFF
:10299C0018D40B2B0FD90B60CC18CD50304600F04F
:1029AC005CF804F10B00231D20F00700C31AD3D0F0
:1029BC005A42E250D0E74B688C4216BF63601360FA
:1029CC000C46EBE70C464968CCE7C41C24F0030426
:1029DC00A04205D0211A304600F02EF80130CFD09D
:1029EC002560DBE79400002098000020F8B507462E
:1029FC0014460E4621B9BDE8F8401146FFF79CBFBE
:102A0C0022B9FFF74DFF25462846F8BD00F026F801
:102A1C00A0420FD221463846FFF78EFF054600280C
:102A2C00F2D031462246FFF70DFC31463846FFF70F
:102A3C0037FFE9E73546E7E738B50023054C05468F
:102A4C000846236000F012F8431C02D1236803B13E
:102A5C002B6038BD280200207047704751F8043CA9
:102A6C00181F002BBCBF0B58C0187047044A0549EF
:102A7C001368002B08BF0B461844106018467047AB
:102A8C009C00002030020020F8B500BFF8BC08BC48
:102A9C009E467047F8B500BFF8BC08BC9E46704710
:102AAC0002030405060708090A0B0C0D0E0F101083
:102ABC000102000003030303020208000F000100DF
:102ACC0006000000000000000000000001020304EA
:102ADC000607080900000000010203042E2E2F53E4
:102AEC0072632F6D61696E2E630000002020202020
:102AFC00202020202020202020202020000000004A
:102B0C00583A2D252333642C25303264206D6D20EA
:102B1C002020202000000000583A2B252333642C61
:102B2C0025303264206D6D20202020200000000014
:102B3C00593A2D252333642C25303264206D6D20B9
:102B4C002020202000000000593A2B252333642C30
:102B5C0025303264206D6D202020202000000000E4
:102B6C00232D302B2000686C4C006566674546476A
:102B7C0000303132333435363738394142434445ED
:102B8C00460030313233343536373839616263645C
:042B9C00656600006A
:042BA00031010008F7
:042BA4000D01000817
:102BA800010000001000000000A24A0410000020EC
:102BB800000000000000000000000000000000000D
:102BC80000000000000000000000000000000000FD
:102BD80000000000000000000000000000000000ED
:102BE80000000000000000000000000000000000DD
:102BF80000000000000000000000000000000000CD
:102C080000000000000000000000000000000000BC
:04000005080021BD11
:00000001FF
